:100000000C945D000C9485000C9485000C94850084
:100010000C9485000C9485000C9485000C9485004C
:100020000C9485000C9485000C9485000C9485003C
:100030000C9485000C9485000C9485000C9485002C
:100040000C9435030C9485000C9403030C94DD028E
:100050000C9485000C9485000C9485000C9485000C
:100060000C9485000C9485000000000024002700FB
:100070002A0000000000250028002B0004040404CE
:100080000404040402020202020203030303030342
:10009000010204081020408001020408102001021F
:1000A00004081020000000080002010000030407FB
:1000B00000000000000000007F0311241FBECFEFEE
:1000C000D8E0DEBFCDBF22E0AEE5B1E001C01D92B9
:1000D000A435B207E1F711E0A0E0B1E0E2EDFBE00A
:1000E00002C005900D92AE35B107D9F710E0CDE50D
:1000F000D0E004C02197FE010E94DC05CC35D10779
:10010000C9F70E94BE030C94E7050C940000E1EBD4
:10011000F0E02491EDE9F0E09491E9E8F0E0E49179
:10012000EE2309F43BC0222339F1233091F038F457
:100130002130A9F0223001F524B52F7D12C02730DF
:1001400091F02830A1F02430B9F4209180002F7D67
:1001500003C0209180002F77209380000DC024B52C
:100160002F7724BD09C02091B0002F7703C02091C4
:10017000B0002F7D2093B000F0E0EE0FFF1FEE588F
:10018000FF4FA591B4912FB7F894EC91811103C062
:1001900090959E2301C09E2B9C932FBF0895CF92D4
:1001A000DF92EF92FF920F931F93CF93DF936C0137
:1001B0007A018B01C0E0D0E0CE15DF0589F0D801CF
:1001C0006D918D01D601ED91FC910190F081E02DB2
:1001D000C6010995892B11F47E0102C02196ECCF4E
:1001E000C701DF91CF911F910F91FF90EF90DF90AA
:1001F000CF900895089580E090E00895FC01538D1C
:10020000448D252F30E0842F90E0821B930B5417F0
:1002100010F0CF96089501970895FC01918D828D7D
:10022000981761F0828DDF01A80FB11D5D968C914A
:10023000928D9F5F9F73928F90E008958FEF9FEF55
:100240000895FC01918D828D981731F0828DE80F11
:10025000F11D858D90E008958FEF9FEF0895FC01CB
:10026000918D228D892F90E0805C9F4F821B910998
:100270008F73992708958FE691E00E942F0121E066
:10028000892B09F420E0822F0895FC01848DDF0181
:10029000A80FB11DA35ABF4F2C91848D90E00196F9
:1002A0008F739927848FA689B7892C93A089B189E8
:1002B0008C9180648C93938D848D981306C00288F2
:1002C000F389E02D80818F7D80830895EF92FF92E6
:1002D0000F931F93CF93DF93EC0181E0888F9B8D69
:1002E0008C8D981305C0E889F989808185FD24C02B
:1002F000F62E0B8D10E00F5F1F4F0F731127E02EAE
:100300008C8DE8120CC00FB607FCFACFE889F9898A
:10031000808185FFF5CFCE010E944501F1CF8B8D05
:10032000FE01E80FF11DE35AFF4FF0820B8FEA89BF
:10033000FB898081806207C0EE89FF896083E8893C
:10034000F98980818064808381E090E0DF91CF91A2
:100350001F910F91FF90EF900895CF93DF93EC01E1
:10036000888D8823C9F0EA89FB89808185FD05C0D5
:10037000A889B9898C9186FD0FC00FB607FCF5CF0F
:10038000808185FFF2CFA889B9898C9185FFEDCF57
:10039000CE010E944501E7CFDF91CF91089580E023
:1003A00090E0892B29F00E943B0181110C94000000
:1003B00008953FB7F8948091630190916401A091F2
:1003C0006501B091660126B5A89B05C02F3F19F0C5
:1003D0000196A11DB11D3FBFBA2FA92F982F8827C5
:1003E000820F911DA11DB11DBC01CD0142E0660F20
:1003F000771F881F991F4A95D1F708958F929F9272
:10040000AF92BF92CF92DF92EF92FF920E94D901FA
:100410004B015C0188EEC82E83E0D82EE12CF12C34
:100420000E94D901DC01CB0188199909AA09BB09ED
:10043000883E9340A105B10558F021E0C21AD108C9
:10044000E108F10888EE880E83E0981EA11CB11C1B
:10045000C114D104E104F10419F7FF90EF90DF908B
:10046000CF90BF90AF909F908F9008952FB7F89442
:1004700060915F01709160018091610190916201D2
:100480002FBF08958F929F92AF92BF92CF92DF922B
:10049000EF92FF926B017C010E9436024B015C01DE
:1004A000C60ED71EE81EF91E0E9436026815790591
:1004B0008A059B0528F0C616D706E806F906A0F7B8
:1004C000FF90EF90DF90CF90BF90AF909F908F9074
:1004D00008950E94E2056115710579F0FB01019014
:1004E0000020E9F73197AF01461B570BDC01ED9176
:1004F000FC910280F381E02D099480E090E0089562
:100500004F925F926F927F92EF92FF920F931F93A1
:10051000CF93DF93CDB7DEB7A1970FB6F894DEBFC8
:100520000FBECDBF7C01FA01CB0119A2223008F425
:100530002AE08E010F5D1F4F422E512C612C712C31
:10054000BF01A30192010E94BA05F901CA0101503D
:1005500011096A3014F4605D01C0695CD8016C93C4
:10056000232B242B252B61F7B801C7010E946B02B6
:10057000A1960FB6F894DEBF0FBECDBFDF91CF912D
:100580001F910F91FF90EF907F906F905F904F9031
:1005900008950F931F93CF93DF93EC010E946B029A
:1005A0008C0161E271E0CE010E946B02800F911F0D
:1005B000DF91CF911F910F9108951F920F920FB667
:1005C0000F9211242F933F934F935F936F937F93D9
:1005D0008F939F93AF93BF93EF93FF938FE691E039
:1005E0000E944501FF91EF91BF91AF919F918F9133
:1005F0007F916F915F914F913F912F910F900FBE1F
:100600000F901F9018951F920F920FB60F92112402
:100610002F938F939F93EF93FF93E0917F01F0913E
:1006200080018081E0918501F091860182FD12C0F8
:100630009081809188018F5F8F732091890182174B
:1006400051F0E0918801F0E0E159FE4F958F8093E1
:10065000880101C08081FF91EF919F918F912F912F
:100660000F900FBE0F901F9018951F920F920FB60C
:100670000F9211242F933F938F939F93AF93BF9328
:1006800080915F0190916001A0916101B091620140
:1006900030915E0123E0230F2D3720F40196A11D38
:1006A000B11D05C026E8230F0296A11DB11D2093A0
:1006B0005E0180935F0190936001A0936101B0930C
:1006C00062018091630190916401A0916501B091F4
:1006D00066010196A11DB11D809363019093640191
:1006E000A0936501B0936601BF91AF919F918F91E7
:1006F0003F912F910F900FBE0F901F901895EFE62E
:10070000F1E01382128288EE93E0A0E0B0E08483EF
:100710009583A683B78384E091E09183808385EC01
:1007200090E09587848784EC90E09787868780ECBB
:1007300090E0918B808B81EC90E0938B828B82ECAC
:1007400090E0958B848B86EC90E0978B868B118E56
:10075000128E138E148EECE0F2E016821782108651
:100760001186128613861486158616861786108AB9
:10077000118A128A138A148A158A0895789484B586
:10078000826084BD84B5816084BD85B5826085BD8D
:1007900085B5816085BD80916E00816080936E001B
:1007A000109281008091810082608093810080910D
:1007B00081008160809381008091800081608093BE
:1007C00080008091B10084608093B1008091B0007E
:1007D00081608093B00080917A00846080937A0079
:1007E00080917A00826080937A0080917A008160A3
:1007F00080937A0080917A00806880937A001092CA
:10080000C1001092500210925102109252021092A6
:10081000530210920E0210920F02109210021092C8
:10082000110268EB7BE080E090E00E9442028FE6DC
:1008300091E090934F0280934E02E0917F01F091FE
:10084000800182E08083E0917B01F0917C01108245
:10085000E0917D01F0917E0180E18083109287011B
:10086000E0918301F091840186E08083E091810131
:10087000F0918201808180618083E0918101F0911B
:100880008201808188608083E0918101F091820102
:10089000808180688083E0918101F0918201808174
:1008A0008F7D80830E94360260930E0270930F0248
:1008B000809310029093110262E171E080914E02E8
:1008C00090914F020E946B026AE070E080E090E03D
:1008D0000E94420281E080932202EDE9F0E024913F
:1008E000E9E8F0E08491882399F090E0880F991F5F
:1008F000FC01E859FF4FA591B491FC01EE58FF4F60
:10090000859194918FB7F894EC91E22BEC938FBF83
:1009100084EF882E99249394A12CB12C0E94360246
:10092000672B682B692B41F40E94360262307105F7
:100930008105910508F405C10E94360260936B01A0
:1009400070936C0180936D0190936E01C09067016C
:10095000D0906801E0906901F0906A016C157D0506
:100960008E059F0540F46093670170936801809342
:10097000690190936A01C0906701D0906801E0908E
:100980006901F0906A019B01AC012C193D094E09E7
:100990005F0969017A013AEFC316D104E104F10459
:1009A00008F4CFC060936701709368018093690178
:1009B00090936A0180921A0290921B02A0921C02EC
:1009C000B0921D0210921E0210921F02109220027D
:1009D000109221028091120290911302A0911402B0
:1009E000B09115028093160290931702A0931802FB
:1009F000B09319020E9436026093120270931302A0
:100A000080931402909315020E94360260930E02A6
:100A100070930F0280931002909311020E9436028D
:100A20006B017C0164E271E080914E0290914F0273
:100A30000E946B022AE041E050E060E070E08091AB
:100A40004E0290914F020E9480026BE271E0809111
:100A50004E0290914F020E946B022AE0B701A6015C
:100A600080914E0290914F020E9480026DE271E0EF
:100A700080914E0290914F020E946B02809112026F
:100A800090911302A0911402B0911502B701A60132
:100A9000481B590B6A0B7B0B2AE080914E02909108
:100AA0004F020E9480026DE271E080914E029091AF
:100AB0004F020E946B02409112025091130260910A
:100AC0001402709115028091160290911702A09164
:100AD0001802B0911902481B590B6A0B7B0B2AE0D4
:100AE00080914E0290914F020E9480026FE271E06D
:100AF00080914E0290914F020E946B020E9436023A
:100B0000AB01BC012AE080914E0290914F020E94FD
:100B1000800261E371E080914E0290914F020E9449
:100B2000C90265E070E080E090E00E9442020E940D
:100B30003602609312027093130280931402909312
:100B4000150268E371E08FE691E00E94C90281E03E
:100B50000E9487000E94FE016AE471E08FE691E046
:100B60000E94C90280E00E9487000E94FE010E944C
:100B7000CF01D4CEA1E21A2EAA1BBB1BFD010DC0D2
:100B8000AA1FBB1FEE1FFF1FA217B307E407F5073D
:100B900020F0A21BB30BE40BF50B661F771F881F19
:100BA000991F1A9469F760957095809590959B01AF
:100BB000AC01BD01CF010895EE0FFF1F0590F49128
:100BC000E02D099481E090E0F8940C94E705F89406
:020BD000FFCF55
:100BD200000000006601CF00FE00AD012F010D01F3
:100BE2002101564D4450565F317C315F564D445081
:100BF200560D0A00564D4450455F003A323A007C89
:100C0200005F564D445045005475726E696E672000
:100C12004C4544206F6E2E2E2E005475726E696EF6
:0E0C220067204C4544206F66662E2E2E000083
:107E0000112484B714BE81FFF0D085E080938100F7
:107E100082E08093C00088E18093C10086E0809377
:107E2000C20080E18093C4008EE0C9D0259A86E02C
:107E300020E33CEF91E0309385002093840096BBD3
:107E4000B09BFECF1D9AA8958150A9F7CC24DD24C4
:107E500088248394B5E0AB2EA1E19A2EF3E0BF2EE7
:107E6000A2D0813461F49FD0082FAFD0023811F036
:107E7000013811F484E001C083E08DD089C08234E0
:107E800011F484E103C0853419F485E0A6D080C0E4
:107E9000853579F488D0E82EFF2485D0082F10E0AE
:107EA000102F00270E291F29000F111F8ED06801E7
:107EB0006FC0863521F484E090D080E0DECF843638
:107EC00009F040C070D06FD0082F6DD080E0C81688
:107ED00080E7D80618F4F601B7BEE895C0E0D1E017
:107EE00062D089930C17E1F7F0E0CF16F0E7DF06D8
:107EF00018F0F601B7BEE89568D007B600FCFDCFD4
:107F0000A601A0E0B1E02C9130E011968C91119780
:107F100090E0982F8827822B932B1296FA010C0160
:107F200087BEE89511244E5F5F4FF1E0A038BF0790
:107F300051F7F601A7BEE89507B600FCFDCF97BE46
:107F4000E89526C08437B1F42ED02DD0F82E2BD052
:107F50003CD0F601EF2C8F010F5F1F4F84911BD097
:107F6000EA94F801C1F70894C11CD11CFA94CF0C13
:107F7000D11C0EC0853739F428D08EE10CD085E9AC
:107F80000AD08FE07ACF813511F488E018D01DD067
:107F900080E101D065CF982F8091C00085FFFCCF94
:107FA0009093C60008958091C00087FFFCCF809118
:107FB000C00084FD01C0A8958091C6000895E0E648
:107FC000F0E098E1908380830895EDDF803219F02E
:107FD00088E0F5DFFFCF84E1DECF1F93182FE3DFCA
:107FE0001150E9F7F2DF1F91089580E0E8DFEE27F6
:047FF000FF270994CA
:027FFE00040479
:0400000300007E007B
:00000001FF